{
  "contractName": "ProductMarket",
  "abi": [
    {
      "constant": true,
      "inputs": [],
      "name": "name",
      "outputs": [
        {
          "name": "",
          "type": "string"
        }
      ],
      "payable": false,
      "stateMutability": "view",
      "type": "function",
      "signature": "0x06fdde03"
    },
    {
      "constant": true,
      "inputs": [],
      "name": "a",
      "outputs": [
        {
          "name": "",
          "type": "uint256"
        }
      ],
      "payable": false,
      "stateMutability": "view",
      "type": "function",
      "signature": "0x0dbe671f"
    },
    {
      "constant": true,
      "inputs": [],
      "name": "quantity",
      "outputs": [
        {
          "name": "",
          "type": "uint256"
        }
      ],
      "payable": false,
      "stateMutability": "view",
      "type": "function",
      "signature": "0x17fc45e2"
    },
    {
      "constant": true,
      "inputs": [],
      "name": "owner",
      "outputs": [
        {
          "name": "",
          "type": "string"
        }
      ],
      "payable": false,
      "stateMutability": "view",
      "type": "function",
      "signature": "0x8da5cb5b"
    },
    {
      "constant": true,
      "inputs": [],
      "name": "price",
      "outputs": [
        {
          "name": "",
          "type": "uint256"
        }
      ],
      "payable": false,
      "stateMutability": "view",
      "type": "function",
      "signature": "0xa035b1fe"
    },
    {
      "constant": true,
      "inputs": [],
      "name": "id",
      "outputs": [
        {
          "name": "",
          "type": "uint256"
        }
      ],
      "payable": false,
      "stateMutability": "view",
      "type": "function",
      "signature": "0xaf640d0f"
    },
    {
      "constant": false,
      "inputs": [
        {
          "name": "_a",
          "type": "uint256"
        },
        {
          "name": "_id",
          "type": "uint256"
        },
        {
          "name": "_name",
          "type": "string"
        },
        {
          "name": "_price",
          "type": "uint256"
        },
        {
          "name": "_quantity",
          "type": "uint256"
        },
        {
          "name": "_owner",
          "type": "string"
        }
      ],
      "name": "setter",
      "outputs": [],
      "payable": false,
      "stateMutability": "nonpayable",
      "type": "function",
      "signature": "0x98b394c1"
    },
    {
      "constant": true,
      "inputs": [],
      "name": "getter",
      "outputs": [
        {
          "name": "",
          "type": "uint256"
        },
        {
          "name": "",
          "type": "uint256"
        },
        {
          "name": "",
          "type": "string"
        },
        {
          "name": "",
          "type": "uint256"
        },
        {
          "name": "",
          "type": "uint256"
        },
        {
          "name": "",
          "type": "string"
        }
      ],
      "payable": false,
      "stateMutability": "view",
      "type": "function",
      "signature": "0x993a04b7"
    }
  ],
  "bytecode": "0x608060405234801561001057600080fd5b506108db806100206000396000f3fe60806040526004361061008e576000357c0100000000000000000000000000000000000000000000000000000000900463ffffffff16806306fdde03146100935780630dbe671f1461012357806317fc45e21461014e5780638da5cb5b1461017957806398b394c114610209578063993a04b714610390578063a035b1fe146104a8578063af640d0f146104d3575b600080fd5b34801561009f57600080fd5b506100a86104fe565b6040518080602001828103825283818151815260200191508051906020019080838360005b838110156100e85780820151818401526020810190506100cd565b50505050905090810190601f1680156101155780820380516001836020036101000a031916815260200191505b509250505060405180910390f35b34801561012f57600080fd5b5061013861059c565b6040518082815260200191505060405180910390f35b34801561015a57600080fd5b506101636105a2565b6040518082815260200191505060405180910390f35b34801561018557600080fd5b5061018e6105a8565b6040518080602001828103825283818151815260200191508051906020019080838360005b838110156101ce5780820151818401526020810190506101b3565b50505050905090810190601f1680156101fb5780820380516001836020036101000a031916815260200191505b509250505060405180910390f35b34801561021557600080fd5b5061038e600480360360c081101561022c57600080fd5b8101908080359060200190929190803590602001909291908035906020019064010000000081111561025d57600080fd5b82018360208201111561026f57600080fd5b8035906020019184600183028401116401000000008311171561029157600080fd5b91908080601f016020809104026020016040519081016040528093929190818152602001838380828437600081840152601f19601f82011690508083019250505050505050919291929080359060200190929190803590602001909291908035906020019064010000000081111561030857600080fd5b82018360208201111561031a57600080fd5b8035906020019184600183028401116401000000008311171561033c57600080fd5b91908080601f016020809104026020016040519081016040528093929190818152602001838380828437600081840152601f19601f820116905080830192505050505050509192919290505050610646565b005b34801561039c57600080fd5b506103a5610698565b604051808781526020018681526020018060200185815260200184815260200180602001838103835287818151815260200191508051906020019080838360005b838110156104015780820151818401526020810190506103e6565b50505050905090810190601f16801561042e5780820380516001836020036101000a031916815260200191505b50838103825284818151815260200191508051906020019080838360005b8381101561046757808201518184015260208101905061044c565b50505050905090810190601f1680156104945780820380516001836020036101000a031916815260200191505b509850505050505050505060405180910390f35b3480156104b457600080fd5b506104bd6107fe565b6040518082815260200191505060405180910390f35b3480156104df57600080fd5b506104e8610804565b6040518082815260200191505060405180910390f35b60028054600181600116156101000203166002900480601f0160208091040260200160405190810160405280929190818152602001828054600181600116156101000203166002900480156105945780601f1061056957610100808354040283529160200191610594565b820191906000526020600020905b81548152906001019060200180831161057757829003601f168201915b505050505081565b60005481565b60045481565b60058054600181600116156101000203166002900480601f01602080910402602001604051908101604052809291908181526020018280546001816001161561010002031660029004801561063e5780601f106106135761010080835404028352916020019161063e565b820191906000526020600020905b81548152906001019060200180831161062157829003601f168201915b505050505081565b8560008190555084600181905550836002908051906020019061066a92919061080a565b508260038190555081600481905550806005908051906020019061068f92919061080a565b50505050505050565b6000806060600080606060005460015460026003546004546005838054600181600116156101000203166002900480601f0160208091040260200160405190810160405280929190818152602001828054600181600116156101000203166002900480156107475780601f1061071c57610100808354040283529160200191610747565b820191906000526020600020905b81548152906001019060200180831161072a57829003601f168201915b50505050509350808054600181600116156101000203166002900480601f0160208091040260200160405190810160405280929190818152602001828054600181600116156101000203166002900480156107e35780601f106107b8576101008083540402835291602001916107e3565b820191906000526020600020905b8154815290600101906020018083116107c657829003601f168201915b50505050509050955095509550955095509550909192939495565b60035481565b60015481565b828054600181600116156101000203166002900490600052602060002090601f016020900481019282601f1061084b57805160ff1916838001178555610879565b82800160010185558215610879579182015b8281111561087857825182559160200191906001019061085d565b5b509050610886919061088a565b5090565b6108ac91905b808211156108a8576000816000905550600101610890565b5090565b9056fea165627a7a72305820f1bf88bda02986dd9db8374c03ef03945ada099e67b2868785e6c4fed2582f550029",
  "source": "// SPDX-License-Identifier: MIT\r\npragma solidity >=0.5.0 <0.9.0;\r\n\r\ncontract ProductMarket {\r\n    uint256 public a;\r\n    uint256 public id;\r\n    string public name;\r\n    uint256 public price;\r\n    uint256 public quantity;\r\n    string public owner;\r\n\r\n    function setter(uint256 _a, uint256 _id, string memory _name, uint256 _price, uint256 _quantity, string memory _owner) public {\r\n        a = _a;\r\n        id = _id;\r\n        name = _name;\r\n        price = _price;\r\n        quantity = _quantity;\r\n        owner = _owner;\r\n    }\r\n\r\n    function getter() public view returns (uint256, uint256, string memory, uint256, uint256, string memory) {\r\n        return (a, id, name, price, quantity, owner);\r\n    }\r\n}",
  "sourcePath": "D:/Blockchain Mini Project/BSCP-Enhancer/contracts/ProductMarket.sol",
  "compiler": {
    "name": "solc",
    "version": "0.5.0+commit.1d4f565a.Emscripten.clang"
  },
  "schemaVersion": "3.0.1",
  "updatedAt": "2024-11-14T04:58:44.613Z",
  "devdoc": {
    "methods": {}
  },
  "userdoc": {
    "methods": {}
  }
}