{
  "contractName": "ProductMarket",
  "abi": [
    {
      "constant": false,
      "inputs": [
        {
          "name": "_product",
          "type": "uint256"
        }
      ],
      "name": "setter",
      "outputs": [],
      "payable": false,
      "stateMutability": "nonpayable",
      "type": "function",
      "signature": "0xd423740b"
    },
    {
      "constant": true,
      "inputs": [],
      "name": "getter",
      "outputs": [
        {
          "name": "",
          "type": "uint256"
        }
      ],
      "payable": false,
      "stateMutability": "view",
      "type": "function",
      "signature": "0x993a04b7"
    }
  ],
  "bytecode": "0x608060405234801561001057600080fd5b5060ec8061001f6000396000f3fe6080604052600436106049576000357c0100000000000000000000000000000000000000000000000000000000900463ffffffff168063993a04b714604e578063d423740b146076575b600080fd5b348015605957600080fd5b50606060ad565b6040518082815260200191505060405180910390f35b348015608157600080fd5b5060ab60048036036020811015609657600080fd5b810190808035906020019092919050505060b6565b005b60008054905090565b806000819055505056fea165627a7a72305820e8ced42072c82c0aa04df27e52fbd3f2d5d93afec919b843d261411a975aa6f40029",
  "source": "// SPDX-License-Identifier: MIT\r\npragma solidity >=0.5.0 <0.9.0;\r\n\r\ncontract ProductMarket {\r\n    uint256 product;\r\n    uint256 id;\r\n    string name;\r\n    uint256 price;\r\n    uint256 quantity;\r\n    address owner;\r\n\r\n\r\n    function setter(uint256 _product) public {\r\n        product = _product;\r\n    }\r\n\r\n    function getter() public view returns (uint256) {\r\n        return product;\r\n    }\r\n}",
  "sourcePath": "D:/Blockchain Mini Project/BSCP-Enhancer/contracts/ProductMarket.sol",
  "compiler": {
    "name": "solc",
    "version": "0.5.0+commit.1d4f565a.Emscripten.clang"
  },
  "schemaVersion": "3.0.1",
  "updatedAt": "2024-11-13T21:38:08.523Z",
  "devdoc": {
    "methods": {}
  },
  "userdoc": {
    "methods": {}
  }
}